:020000040800F2
:10000000C00A0020C10100086B270008DD25000898
:10001000692700082F0400082D31000800000000A7
:10002000000000000000000000000000B9290008E6
:1000300071110008000000006D270008E92A00087F
:10004000DB010008DB010008DB010008DB01000820
:10005000DB010008DB010008DB010008DB01000810
:10006000DB010008DB010008DB010008DB01000800
:10007000DB010008DB010008DB010008DB010008F0
:10008000DB010008DB010008DB010008DB010008E0
:1000900031040008DB010008DB010008DB01000877
:1000A000DB010008DB010008DB010008DB010008C0
:1000B000DB010008DB010008DB010008DB010008B0
:1000C000DB010008DB010008DB010008DB010008A0
:1000D000DB010008DB010008DB010008DB01000890
:1000E000DB010008DB010008DB010008DB01000880
:1000F000DB010008DB010008DB010008DB01000870
:10010000DB010008DB010008DB010008DB0100085F
:10011000DB010008DB010008DB010008DB0100084F
:10012000DB010008DB010008DB010008DB0100083F
:10013000DB010008DB010008DB010008DB0100082F
:10014000DB010008DB010008DB010008DB0100081F
:10015000DB010008DB010008DB010008DB0100080F
:10016000DB010008DB010008DB010008DB010008FF
:10017000DB010008DB010008DB01000800000000D3
:10018000DB010008DB010008DB010008DB010008DF
:10019000DB010008DB010008DB010008DB010008CF
:1001A000DB010008DB010008DB010008DFF80CD0F0
:1001B00000F08CF80048004779330008C00A00209E
:1001C0000648804706480047FEE7FEE7FEE7FEE7F1
:1001D000FEE7FEE7FEE7FEE7FEE7FEE7912B0008FD
:1001E000AD0100082DE9F05F0546002092469B46D0
:1001F00088460646814640241BE02846414647463D
:10020000224600F053F853465A46C01A914110D383
:1002100011461846224600F03AF82D1A67EB0108FD
:100220004F4622460120002100F031F817EB00096B
:100230004E41201EA4F10104DFDC484631462A4627
:100240004346BDE8F09F40EA01039B0703D009E065
:1002500008C9121F08C0042AFAD203E011F8013BB2
:1002600000F8013B521EF9D27047D2B201E000F80B
:10027000012B491EFBD270470022F6E710B513464A
:100280000A4604461946FFF7F0FF204610BD202A13
:1002900004DB203A00FA02F1002070479140C2F1DD
:1002A000200320FA03F3194390407047202A04DB0F
:1002B000203A21FA02F00021704721FA02F3D040DF
:1002C000C2F120029140084319467047064C074D81
:1002D00006E0E06840F0010394E807009847103416
:1002E000AC42F6D3FFF766FFD4360008F4360008B8
:1002F0002DE9F84F4FF0000814008A460546CDF866
:1003000000803FD0264EDFF89C903088424202EBBE
:10031000090101F00307E9191431814201D90320D1
:100320002FE022466946504600F09EFF20780523C4
:1003300060B317B13088C01B308032884046C2F5A8
:100340005C7111EB09010091A1F800A0C1F81080C7
:100350004D80A1F8048005F11405A1F8068001F193
:100360001407A2EB0502CF600D4D81F808803280A2
:1003700005F1040502D02A6812B10AE0042000E069
:1003800029602070BDE8F88F914201D12370F9E710
:100390002A461569002DF7D111610861F1E70000C7
:1003A0003800002040030020704708B500206A464E
:1003B0000E21009000F074FE009880B208BD10B5C8
:1003C000002402F04FF9012806D100F080FE02F06F
:1003D00091FE012800D10124204610BD05490120CD
:1003E0000A68D20000D400200A6842F080720A60D5
:1003F000704700007438024010B500F097FF0128E4
:1004000007D100F085FF012803D1BDE8104002F0BC
:1004100029B910BD10B5002004468100401CC0B2AF
:100420000C600428F9D3FFF7C0FFE08110BDFEE7A0
:10043000014801F0ECB900005800002038B5064C26
:100440000025206808B1804765608DF80050694636
:10045000742000F027FE38BD30000020F0B585B0D4
:100460004FF0000517460C000646ADF8105022D09C
:100470006A4604A9522001F016F89DF80000D0B990
:10048000BDF8101004F10C00814214D36B460C220D
:1004900001A952200196CDE9024502F077FE9DF8B0
:1004A000000040B96B4622463946522002F06EFEEB
:1004B0009DF8000010B1002005B0F0BD0120FBE761
:1004C000F0B587B00646002017460D46ADF804008B
:1004D00005AA01A9542000F0BFFF9DF8140018BB25
:1004E000BDF8040000B30C281ED305AC01AB02AA72
:1004F0000C215420009402F048F99DF8140098B99A
:10050000BDF804000C280FD10398009481B201AB10
:100510003A46542002F039F99DF8140020B9BDF88C
:1005200004100398884202D0002007B0F0BD029862
:10053000306003982870049802F0C2FB0120F4E7B1
:10054000F8B51C4D06460C46A87B8DF80000A82285
:10055000002105F1A80002F0E3FEA82200212846B0
:1005600002F0DEFE14490020486002F0A9FB30785A
:1005700048B105F110026946A2F10800FFF7A0FF9B
:1005800001280CD014E0707A4FF00101020904D068
:10059000B1EB101F0CD1022009E0217008E09DF89A
:1005A0000000E881072801D9062000E0052020701E
:1005B0000020F8BDC4000020240000202DE9F047F1
:1005C000DFF8FC8004460E46B8F80400002780B12E
:1005D000217A002971D0207801286ED0607A020932
:1005E00003D00122B2EB101F06D137700620BDE800
:1005F000F0870F700320FAE7D8F8082063689A4262
:1006000003D10222B2EB101F01D00920EFE798F8C6
:10061000002000F00F00824201D00420E7E7B8F884
:100620000C00491E50FA81FC254DB8F80E301035EB
:1006300004F10A019C450CD31A1A284402F012FE58
:10064000B8F80E102A46D8F80800FFF707FF3770F1
:1006500033E01C48DFF87090038A83B198F80130CA
:10066000B0F810C063450AD3428B0078B2FBF0F0BB
:10067000A8F80400C9F80400072030700FE0521CED
:10068000D2B288F800200F2A01D988F80070C28BF6
:100690000078B2FBF0F0A8F80400C9F80400227A50
:1006A000B8F80C00521E284402F0DCFDB8F80C002B
:1006B000217A0844401EA8F80C00002097E70000AB
:1006C0006C010020483600082400002070B51B4A49
:1006D000002693885BB1037A0BB30378012B2BD0F0
:1006E000437A0324B4EB131F04D0092070BD0E70AD
:1006F000032070BD03F00F05022D07D0104B114CE5
:10070000012D06D065B10E70052070BD0E70082059
:1007100070BD188B1978B0FBF1F0908060600BE031
:10072000857A5570C07A6080988B1B78B0FBF3F0A7
:100730009080606008200870002070BDC400002018
:1007400048360008240000202DE9F0410446007AD4
:100750008846E8B3217801293ED0637A0127B7EBB8
:10076000131F39D1002104F109020E46082833D3A2
:10077000507803F00F0350EA032007D1030250180A
:10078000491C8078C9B218430429F7D3082823D319
:10079000124D6168A960E8811148418B0078B1FB76
:1007A000F0F01049A8804860227A04F10B0105F1AD
:1007B0001000921E02F056FDA889217A0844801E7E
:1007C000A881072188F8001027702672002000E019
:1007D00002E06660BDE8F0810920FBE76C010020C3
:1007E000483600082400002070B5037A0C4613B385
:1007F000017801291FD0417A0A091CD10025012B5B
:1008000019D9082B01F00F0103D84A1E062A05D971
:1008100011E081B9817A4A1E3D2A0CD85B1E9942AB
:1008200009D8436800F10A021846FFF717FE10B115
:100830002570002070BD092070BD00002DE9FE4329
:100840004FF00008344CCDF80480CDF80880608863
:100850000F4610B10020BDE8FE83A08868B301A94F
:10086000022000F06AFB9DF80410207801F0F001EE
:1008700008438DF80400A07BA289284D801AC6B2D7
:1008800003206870244926481031A860DFF894904E
:1008900001A8072E114417D30722401C02F0E2FCE6
:1008A000D9F820000090D9F82460A0681E4B01AA56
:1008B0000821B047012818D103E081F80080022008
:1008C000C9E7A089C01D1AE03246401C02F0CAFCEC
:1008D000701CC1B2D9F820000090D9F824C0A068DB
:1008E000114B01AAE047012807D0022068700020C0
:1008F000A86087F800800920ADE7A0893044A08176
:10090000B9F8141099F80000B1FBF0F0A08068600D
:10091000092038709EE70000C40000202400002059
:100920002D090008483600081510000870B5194850
:100930000025194C8189C289914204D3002002F01C
:1009400059F9257070BD154963880A78B3FBF2F236
:100950004280427822B1521E12F0FF0242700FD044
:100960000278521CD2B202700F2A00D905708A8B0D
:100970000978B2FBF1F1818008206160207070BDC0
:10098000032222700A8B0978B2FBF1F18180616049
:1009900070BD0000C400002024000020483600087C
:1009A000FEB50025234C01950295A0880E4608B19E
:1009B0000020FEBD01A9032000F0BFFAE0899628BF
:1009C0009DF8050000F0F00000D9801C1A4A8DF84F
:1009D0000500107C8DF80500108A10B16078401C6D
:1009E00060702078401CC0B220700F2800D925709C
:1009F000907C8DF80600D08A1178B0FBF1F0A080D1
:100A00000E4C6060032060700D48A060106A00907A
:100A1000576AD0680B4B01AA0821B847012806D0B5
:100A2000022060700020A06035700920FEBD092002
:100A30003070BDE76C01002048360008240000201B
:100A4000490A00081510000808480949C289962A71
:100A500001D9002007E0074AD38B1278B3FBF2F2EA
:100A6000828004204A600870704700006C010020FA
:100A700024000020483600082DE9FE434FF000080E
:100A8000244DCDF80480CDF80880E8890F4607286A
:100A900004D8052008700820BDE8FE8301A90120C4
:100AA00000F04BFA9DF804001B4C00F0F001E889BF
:100AB00041EA10218DF804109DF8051001438DF8CE
:100AC00005100320607015481249A06006221031FD
:100AD0000DF1060002F0C6FB114E124B01AA306A5E
:100AE0000090D6F824C0A8680821E047012807D064
:100AF000022060700020A06087F800800920CBE70A
:100B0000B08A3178B0FBF1F0A880606009203870BD
:100B10000020C1E7C400002024000020290B0008A9
:100B200048360008151000080B488189891D81810D
:100B30000A490A8B0978B2FBF1F1094A81805160B8
:100B40000178491CC9B201700F2901D90021017037
:100B50000320107070470000C400002048360008D1
:100B6000240000202DE9FE430026264C0196029623
:100B7000E0890D46072802D9062008702EE080B3D0
:100B800001A9002000F0D9F99DF80400E28900F0E5
:100B9000F00010438DF80400401C1A49C7B2A0466B
:100BA00010310DF1050002F05DFB174C0320607061
:100BB000DFF85C901548A060D9F820000090D9F8C3
:100BC00024C0D8F80800134B01AA3946E047012891
:100BD0000AD0022060700020A0602E700920BDE8BD
:100BE000FE83FFE70E70F9E7B9F8141099F80000DA
:100BF000B1FBF0F0A8F80400606009202870002024
:100C0000EDE70000C400002024000020190C0008BB
:100C1000483600081510000810B5002001F0EAFF62
:100C200001490020087010BD2400002010B5044CBC
:100C30006068002802D080470020606010BD00007E
:100C40003000002070B5094C0D46606860B9084856
:100C5000C16A09B108468047022001F0CBFF02209B
:100C600060700020A0602870002070BD240000206B
:100C7000483600082DE9F04186B0174688460446FC
:100C80000025ADF8105005AA04A9742000F0E4FB7B
:100C90009DF8140060BBBDF810000C2828D905AEE3
:100CA00004AB01AA0C217420009601F06EFD9DF8A2
:100CB0001400E8B9BDF810000C2819D10125A1B223
:100CC00004AB42467420009601F05FFD9DF81400CD
:100CD00070B9BDF81000A0420AD10298A04207D80E
:100CE00001AB93E8070087E80700034903984860D1
:100CF00006B02846BDE8F0813000002070B50546FA
:100D000094B0002016460C46ADF84C00082922D8B5
:100D10006A4613A9722000F0C6FB9DF80000E8B9EE
:100D2000BDF84C1004F10800884217D86B46082221
:100D300001A97220CDE9014502F028FA9DF80000D2
:100D400048B901986B4682B23146722002F01EFA11
:100D50009DF8000010B1002014B070BD0120FBE729
:100D600040F2DF70704740F24C70704740F25C70A8
:100D7000704708B56A4652219620FFF7B9FA9DF8E8
:100D8000000000B1FEE76A4654213220FFF7B0FAB6
:100D90009DF8000000B1FEE76A4672214FF496709C
:100DA000FFF7A6FA9DF8000000B1FEE76A4674213D
:100DB0006420FFF79DFA9DF80000002800D0FEE7B0
:100DC00008BD002140F2DF72824203D040F24C7233
:100DD000824200D101210846704700002DE9F0430E
:100DE00085B00025142228496846FFF72CFADFF861
:100DF0009C800026344698F8000009280ED024482C
:100E000002A9836A01A8421D9847012806D10198CA
:100E1000FFF7D7FF012801D18DF800401A4FA146F6
:100E2000503F444617F835002178884207D107EB38
:100E3000C50042681AB11549684690470646062E15
:100E40001AD00EB184F800906D1CEDB20A2DE9D3D2
:100E500001208DF800004D468DF80890CDF80490E3
:100E600072B6607862B6012808D0022801D1657098
:100E7000A56005B0BDE8F0830025D3E7A068002891
:100E8000F7D08047F4E70000343600082400002043
:100E90004836000801490860704700003000002013
:100EA0002DE9F04198B0074600200E46ADF85400F9
:100EB000ADF858009046482101A8FFF7DDF900245D
:100EC00014AA15A9722000F0C7FA9DF85000F8B9CD
:100ED000BDF8540008281BD314AD16AB01AA082195
:100EE0007220009501F051FC9DF8500080B9BDF8CA
:100EF000540008280CD30198009581B215AB03AAC1
:100F0000722001F042FC0298FFF75BFF012803D03A
:100F1000002018B0BDE8F081029838600198307068
:100F200001A805E001190A7A08F80420641CE4B25B
:100F30000199A142F6D80120EBE738B1012805D08C
:100F4000032803D0022801D0002070470A7802F05D
:100F50000F0242EA00100870012070470C484188D7
:100F600009B1491E4180818809B1491E8180084824
:100F7000A838418809B1491E4180818809B1491EBC
:100F8000818004494868002801D0401E48607047AD
:100F90006C01002024000020F0B5064687B0002038
:100FA0001D4617460C46ADF80C000190029008292A
:100FB00002D9002007B0F0BD6A4603A9742000F0F2
:100FC00072FA9DF8000018BBBDF80C0014281FD35E
:100FD00008200496CDE905052246394601A802F00D
:100FE00041F96B460C2204A9742002F0CFF89DF859
:100FF000000040B96B46082201A9742002F0C6F82F
:101000009DF8000020B16946742000F04BF8D0E74D
:101010000120CFE7014901204870704724000020DB
:1010200010B500F00BF8044800F0C0FDBDE810401A
:101030000221014800F064BA5800002000B58BB0CE
:1010400000200390069007900090012101900290EB
:101050000490089105906946024800F0C7FA0BB069
:1010600000BD00005800002038B5FF2200920A465B
:10107000014600246B46084800F054FA074D641CF2
:10108000AC4201D9032038BD034800F0AAFB032875
:10109000F5D1002038BD000058000020809698004F
:1010A00000F04AB838B54FF000050C0000950DD09F
:1010B0000A46694600F0D8F82078002806D172B6B2
:1010C00000980572C188818062B6257038BD10B560
:1010D00000242470FFF769F9E08110BD4A7A52B10B
:1010E000032A08D0802A0CD0832A0AD00A46007826
:1010F000122101F0ECBC0078403008724A720220E4
:1011000001E000200872486070474A7A012A0AD03C
:10111000022A08D0812A0CD0822A0AD00A460078F6
:10112000122101F0D4BC0078403008724A720220CB
:1011300000E000204860704770B500242346084D49
:1011400007E0C65C6640F6B25B1C35F8166086EABE
:1011500014248B42F5D3E04380B2106070BD0000D0
:10116000E23300080221014800F06CBE0004024096
:101170007047000030B402784B7A40320A724B72EA
:1011800002224A600024154A41F28835812B11D091
:1011900006DC012B0ED0022B13D0032B04D116E05A
:1011A000822B0ED0832B12D000780A4630BC12213D
:1011B00001F08DBC01201070812B00D14C6030BC3F
:1011C000704702201070822B05D14C6003E0042090
:1011D0001070832BF9D09580F1E7000046000020C5
:1011E00072B6BFF34F8F05480168054A01F4E0610C
:1011F00011430160BFF34F8F00BFFDE70CED00E02E
:101200000400FA0572B6FEE770B50F4C0025257094
:1012100000F042F80023657084F8E450FF2219467C
:10122000184600F00FF904F58470C4F8F000142299
:101230000021143802F074F804F58470BDE87040A1
:101240002422FF2102F06CB81402002003004FF0AA
:10125000000002D108601060012070470022026087
:1012600001200A607047000010B5002A0BD011B1B0
:10127000084B5B6809E004200AE01C88844203D123
:10128000002010700B6010BD1B69002BF5D10220EF
:10129000107010BD380000201CB500200090019097
:1012A00001A96846FFF7DAFF012805D1DDE9000151
:1012B0000A1A002102F034F81CBD0000014890F821
:1012C000E40070471402002070B50F4C0025257013
:1012D0006078012802D1FFF7DFFF6570002004F875
:1012E000E40F0346FF22014600F0ACF80748E06037
:1012F00014220021143802F013F8BDE870402422B3
:10130000FF21024802F00CB8140200201C03002048
:1013100005480178012905D14178012902D1807859
:10132000012800D0002070471C0300200EB50020CB
:101330000090019002AA01A90290FFF787FF02998D
:10134000242906D3012804D1242209480199FEF753
:101350007AFF6A4620210648FFF7A2FE044800995A
:10136000006A884201D101200EBD00200EBD0000A0
:101370001C0300202DE9F0471C4C8146012594F800
:10138000E4008846D6B2012800D00025C82E01D935
:10139000002525E03246201D01F064FF0127C4F836
:1013A000E060EDB1607858B101F042F9012807D052
:1013B0000023FF221946022000F044F8A77011E034
:1013C00001F036F9012804D132464146484601F081
:1013D00049FF0023FF221946184600F033F801E0C8
:1013E000FFF772FF2846BDE8F087000014020020D6
:1013F000024AE2E93301C2E9020170471402002007
:1014000008B500220092112901D9112200E00A46F4
:101410000749D1F8F0300146181D01F023FF6A4654
:1014200020210448FFF73CFE02490098086208BDED
:10143000140200201C030020014981F8E4007047D9
:101440001402002010B5034C84F8E500E270C4E9F2
:101450003A1310BD14020020F8B54FF00006140036
:101460000D4600960ED075B16946FFF7FDFE207857
:10147000002807D10098017A012907D0022910D04D
:101480002E802670F8BD04201070F8BD8288C188B7
:101490008A4203D94088801A084400E0881A2880CC
:1014A000EFE74088FBE7F8B54FF0000614000D4663
:1014B00000960DD06DB16946FFF7D6FE2078002862
:1014C00006D10098017A012906D081B12E802670BC
:1014D000F8BD04201070F8BD8288C1888A4201D905
:1014E000501A02E040881044401A2880EFE74088F4
:1014F000FBE700000B210170004870477C360008B4
:1015000090F82020012A07D0022A05D0416A41F430
:101510008021416201207047006842690A434261AC
:1015200000207047F0B590F820500468A468012DA1
:1015300005D0022D03D0416A41F4802153E014F01C
:10154000406F01D1E5004BD5C4F30164022C03D9EF
:10155000416A41F4000146E00125A5401D608D6807
:101560004FF4C0739DB1CE6835434E6845EAC60559
:10157000066803EB0417F5514FF4C275076805EBD5
:1015800004150E697E51097D012905D009E00E88F8
:10159000CD6845EA4655EBE701684E5946F480763A
:1015A0004E511179D2F805504FF4C67641EA05251F
:1015B000016806EB04168D511178D2F801204FF422
:1015C000C47541EA0221026805EB04155151006817
:1015D00003EB0411425842F0010242500020F0BDDA
:1015E000416A41F4001141620120F0BD10B590F84C
:1015F0002020012A07D0022A05D0416A41F4802127
:101600004162012010BD3B48D0F8002242F00102A7
:10161000C0F80022D0F8002222F47C52C0F8002248
:10162000D0F800224B6A42EA0322C0F800220A7D69
:1016300002F01F0301229A40D0F81C329343C0F8F5
:101640001C32CB69B3B9D0F80C329343C0F80C32DA
:101650008C894B6864F31F434C6900EBC404C4F8E5
:1016600040320C890B6864F31F434C6900EBC404DF
:10167000C4F84432CB69012B16D1D0F80C32134395
:10168000C0F80C320C884B6864F31F434C6900EBC4
:10169000C404C4F840320C89CB6864F31F434C691E
:1016A00000EBC404C4F844328B69002BD0F8043238
:1016B0000ED01343C0F804320B69002BD0F814325B
:1016C00008D01343C0F81432096A012904D008E095
:1016D0009343EFE79343F5E7D0F81C121143C0F8AA
:1016E0001C12D0F8001221F00101C0F800120020F5
:1016F00010BD000000640040704730B590F82040F5
:10170000012C05D0022C03D0416A41F480215DE018
:101710000468002955D02469A40754D04FF4D87424
:10172000056804EB01142D5915F004059560056852
:101730002D594ED0ED08556005682C5904F002046F
:10174000D4604FF4DA74056804EB01142D5905F0E8
:101750000F05156105682D59C5F3072595610568C5
:101760002C59240C54614FF4DC72046802EB011212
:10177000A4581C700468A458240A5C700468A45817
:10178000240C9C700468A258120EDA704FF4DE72BA
:10179000046802EB0112A4581C710468A458240ABE
:1017A0005C710468A458240C9C710468A258120E41
:1017B000DA71006881B1016941F020010161002006
:1017C00030BDE468A8E7416A41F40011416201209C
:1017D00030BD6D0D1560AFE7C16841F02001C160FB
:1017E000EDE70246002092F82010012901D00229DD
:1017F0000CD111688A68520100D501208A68120153
:1018000000D5401C8968C90000D5401C70472DE9EF
:10181000F05F0546006800244669D0F804908768A8
:10182000D0F80CB0D0F810A0D0F81880F10748D04C
:10183000F90714D001218160B80703D5284600F0CC
:10184000E2F90CE0780702D54FF4006407E03807AE
:1018500002D54FF4805402E0284600F0D3F9F80591
:1018600016D529684FF480708860B80503D52846DE
:1018700000F0CBF90CE0780502D544F4005407E001
:10188000380502D544F4804402E0284600F0BCF953
:10189000F80316D529684FF480308860B80303D563
:1018A000284600F0B4F90CE0780302D544F4004473
:1018B00007E0380302D544F4803402E0284600F003
:1018C000A5F9300707D55FEACB6004D52968102059
:1018D00044F40074C86070074FF0080707D55FEA4A
:1018E0000B7004D52868C760284600F059F9B00786
:1018F00006D52868C068800702D0284600F051F954
:10190000700607D55FEACA6004D52968102044F440
:1019100080640861B00607D55FEA0A7004D52868BC
:101920000761284600F03FF9F00606D528680069EF
:10193000800702D0284600F037F9B00308D55FEAE7
:10194000C96005D5296810204860284600F02DF9A7
:10195000F00307D55FEA097004D528684760284678
:1019600000F056F9300446D55FEA497040D5F005DD
:1019700004D55FEAC87001D044F00104B00504D575
:101980005FEA887001D544F00204700504D55FEA6F
:10199000487001D544F00404300529D518F0700FC3
:1019A00026D008F07000402815D006DC102809D099
:1019B00020280AD0302816D10AE050280ED06028FE
:1019C00011D10EE044F008040DE044F010040AE0E8
:1019D00044F0200407E044F0400404E044F08004B4
:1019E00001E044F480742868816921F0700181610C
:1019F000296804204860002C05D0686A204368628A
:101A00002846FFF779FEBDE8F09F70B5040003D0CB
:101A100094F8200010B104E0012070BD204600F0D1
:101A200081F82068016821F00201016000F018FAD5
:101A30000546052604E000F013FA401B0A2811D8D9
:101A4000206840688007F6D42068016841F00101F1
:101A5000016000F005FA05460BE000F001FA401BBA
:101A60000A2806D9606A40F40030606284F8206079
:101A7000D2E720684068C007EFD0207E01282068A8
:101A800001683DD021F080010160607E012820685E
:101A9000016838D021F040010160A07E0128206853
:101AA000016833D021F020010160E07E0128206828
:101AB00001682ED041F010010160207F01282068CC
:101AC000016829D021F008010160607F01282068A9
:101AD000016824D021F004010160D4E90201084327
:101AE000D4E90412114308436168491E0843216880
:101AF000C86100206062012084F82000002070BDD1
:101B000041F08001C0E741F04001C5E741F020010C
:101B1000CAE721F01001CFE741F00801D4E741F016
:101B20000401D9E710B586B0044614216846FEF7D3
:101B3000A3FB18492068884229D117480021026870
:101B400042F000720260006800F0007005901248D8
:101B50001038026842F001020260006800F00100E3
:101B600005904FF4C05000900220CDE90101032000
:101B70000390092004906946084800F04BF80022C1
:101B80001146142000F0DAF9142000F0C9F906B06B
:101B900010BD0000006400404038024000000240D8
:101BA000704700F0CBBE70477047704770B5044671
:101BB00090F82000012804D0606A40F400206062A0
:101BC00018E0022084F820002068016821F001015B
:101BD000016000F045F905460EE000BF00F040F955
:101BE000401B0A2808D9606A40F400306062052072
:101BF00084F82000012070BD20684068C007EDD146
:101C0000606270BD7047704770477047704770479B
:101C1000704700002DE9F84FDFF8F4A100220124FD
:101C20000AF1040B03254FF00F090BF1040E00BF5E
:101C30000B6804FA02F63340B3426FD10F7907F014
:101C40000307012F01D0022F16D187684FEA4208FF
:101C500005FA08FC27EA0C07D1F80CC00CFA08FCBE
:101C60004CEA070CC0F808C04768B7430E79C6F3C2
:101C7000001696403E4346600E79F643B6070AD0FA
:101C8000C7684FEA420C05FA0CF6B7438E6806FAAD
:101C90000CF63E43C6600E7906F00306022E10D104
:101CA000D60800EB8608D8F8206057074FEAD76CB3
:101CB00009FA0CF7BE430F6907FA0CF73743C8F867
:101CC000207006684FEA420C05FA0CF7BE430F7904
:101CD00007F0030707FA0CF7374307604E68F60072
:101CE0001CD54C4E376847F480473760366822F081
:101CF000030706F480460096474E07EB060CDCF817
:101D0000086897073F0F09FA07F826EA0806DFF880
:101D10000C81404503D14FF0000841E072E0DFF84C
:101D20000081404502D14FF0010839E0DFF8F4802E
:101D3000404502D14FF0020832E0DFF8EC80404528
:101D400002D14FF003082BE0DFF8E080404502D1DC
:101D50004FF0040824E0DFF8D880404502D14FF06E
:101D600005081DE0DFF8CC80404502D14FF00608A1
:101D700016E0DFF8C480404502D14FF007080FE0BD
:101D8000DFF8B880404502D14FF0080808E0DFF8DE
:101D9000B080404502D14FF0090801E04FF00A0839
:101DA00008FA07F848EA0608CCF80888DAF800606C
:101DB0005746D1F804C09E435FEACC3C00D51E4391
:101DC0003E60DBF800605F46D1F804C09E435FEAE6
:101DD0008C3C00D51E433E60DEF800607746D1F8AB
:101DE00004C09E435FEACC2C00D51E433E60084FE2
:101DF0000C373E68D1F804C09E435FEA8C2C00D5B6
:101E00001E433E60521C102AFFF412AFBDE8F88F4B
:101E1000003C0140443802400030014000000240D4
:101E20000004024000080240000C02400010024082
:101E30000014024000180240001C02400020024032
:101E400000240240426921EA02030A4043EA0241B7
:101E5000816170470AB1816170470904FBE70000A6
:101E60000148806870470000000000200248816837
:101E70000278114481607047000000200B4810B5C3
:101E8000016841F400710160016841F48061016002
:101E9000016841F480710160032000F06FF80F20A9
:101EA00000F006F800F024F8002010BD003C0240CD
:101EB00070B50D4D04464FF47A712878B1FBF0F0FF
:101EC0000A490968B1FBF0F000F00CFB48B9102C8E
:101ED00007D200222146501E00F030F800206C602E
:101EE00070BD012070BD0000000000200C0000202B
:101EF0000A4808B5016841F480410160006800F4B7
:101F0000804000900548001F016841F08051016049
:101F1000006800F08050009008BD00004438024086
:101F2000002809DB00F01F020121914040098000D8
:101F300000F1E020C0F8001170470000F0B40E4B33
:101F40001B680C46C3F30223C3F10705042D00D917
:101F50000425191D072901D2002300E0DB1E0126FC
:101F600006FA05F1491E214099409E40761E164012
:101F70003143F0BC01F056B90CED00E0064900F029
:101F8000070208684FF6FF03184040EA0220034AA0
:101F900010430860704700000CED00E00000FA05F7
:101FA0002DE9F0470E46050065D0DFF81481D8F81A
:101FB0000000F7B200F00F00B04207D288F80070BE
:101FC000D8F8000000F00F00B04254D128683D4C12
:101FD000810712D5400703D5206840F4E050206007
:101FE0002878000703D5206840F46040206020680E
:101FF000A96820F0F000084320602878C0072DD0A1
:10200000304968680839012812D0022813D0032803
:1020100011D00968890700292DDA216821F0030110
:1020200001432160FFF71CFF814641F2883A0EE030
:1020300009688903EFE709688901ECE7FFF710FFFA
:10204000A0EB0901514502D90320BDE8F0872068C3
:10205000696800F00C00B0EB810FEFD1D8F80010E8
:10206000404601F00F01B14207D90770006800F047
:102070000F00B04201D00120E7E72878400705D5DE
:102080002068E96820F4E0500843206028780007C1
:1020900006D52068296920F4604040EAC10020602C
:1020A00000F038F82168084AC1F30311515CC840B8
:1020B0000649086006480068FFF7FAFE0020C4E7FA
:1020C000003C024008380240A83300080C00002001
:1020D000040000200448054900680968044AC1F367
:1020E0008221515CC84070470C0000200838024033
:1020F000B83300080448054900680968044AC1F378
:102100004231515CC84070470C0000200838024042
:10211000B8330008154810B5006810F00C021448D8
:1021200013D01449042A0FD0082A0ED10F4C241FB3
:102130002268236802F03F025B0207D52068C0F3E3
:102140008810A0FB010106E0084610BD2168C1F31C
:102150008811A1FB00010023FEF744F82168C1F3B8
:102160000141491C4900B0FBF1F010BD08380240A4
:102170000024F40040787D012DE9F84F04006ED072
:102180002078DFF84C93C007A9F104054AD009F183
:1021900004000168C1F38101012908D00068C0F37F
:1021A000810002280AD1D9F80000400206D528682B
:1021B000800337D560680028E1D033E06068B0F56F
:1021C000803F10D0B0F5A02F286810D020F48030C8
:1021D0002860286820F4802028606068A8B1FFF794
:1021E0003FFE06460DE0286840F48030F4E740F4F6
:1021F00080202860F7E700BFFFF732FE801B6428CD
:1022000073D828688003F7D50CE0FFF729FE06464F
:1022100005E000BFFFF724FE801B6428F0D8286883
:102220008003F7D42078DFF8AC8280074FF0000AF3
:102230003ED5A748001D016811F00C0F08D00068BA
:10224000C0F3810002280BD1D9F80000400207D466
:102250002868800716D5E068012800D112E033E134
:10226000E068B8B10120C8F80000FFF7F9FD0646A4
:1022700005E000BFFFF7F4FD801B0228C0D82868E6
:102280008007F7D52868216920F0F80040EAC100EE
:1022900028600DE0C8F800A0FFF7E2FD064604E064
:1022A000FFF7DEFD801B02281FD828688007F7D4BF
:1022B0002078000722D5864F87486169703771B151
:1022C00001210160FFF7CCFD064604E0FFF7C8FDE1
:1022D000801B022809D838688007F7D50EE0C0F8BF
:1022E00000A0FFF7BDFD064605E082E0FFF7B8FD60
:1022F000801B02287DD838688007F7D420784007F3
:1023000068D5DFF8CCB100270BF13C0BDBF80000FF
:10231000C0000BD4DBF8001041F08051CBF8001066
:10232000DBF80000012700F0805000906B4E306811
:10233000C00510D4306840F480703060FFF790FD25
:10234000009005E0FFF78CFD0099401A022850D854
:102350003068C005F6D55E4EA0686C3601280FD0F7
:102360000528306810D020F001003060306820F07F
:1023700004003060A068B8B1FFF772FD00900FE074
:10238000306840F00100F4E740F004003060F7E707
:10239000FFF766FD0099411A41F28830814266D804
:1023A00030688007F4D50EE0FFF75AFD009007E093
:1023B000FFF756FD0099411A41F28830814256D804
:1023C00030688007F4D42FB1DBF8001021F0805181
:1023D000CBF80010A069C8B33D49091D0968C1F3D5
:1023E000810102294AD00228504607D0C8F860006F
:1023F00000E03CE0FFF734FD04463BE04746C8F808
:102400006000FFF72DFD064605E000BFFFF728FD41
:10241000801B02282BD828688001F7D4D4E9070153
:102420000843A16A2E4A490802EB0141626A41EA67
:102430008211084394F82C1040EA0161C9F8001099
:1024400001203866FFF70CFD044606E03EE000BFC1
:10245000FFF706FD001B022809D828688001F7D580
:1024600034E000BFFFF7FCFC001B022802D9032068
:10247000BDE8F88F28688001F4D427E00128F7D060
:10248000D9F80000E26900F4800191421CD1226A6F
:1024900000F03F01914217D147F6C071626A0140D6
:1024A000B1EB821F10D1A26A4FF0FF3300F440312C
:1024B00003EB5202B1EB024F06D194F82C1000F05E
:1024C0007060B0EB016F01D00120D1E70020CFE7B1
:1024D0000438024000004742800E4742007000402E
:1024E0000000FFFF10B5401EB0F1807F01D3012036
:1024F00010BD4FF0E02460610F21601700F092FEE4
:102500000020A06107202061002010BD70B50400EC
:1025100004D094F83D00002510B106E0012070BD04
:1025200084F83C50204600F023F8242084F83D0035
:102530002068C16821F40051C160204600F088FC89
:102540002068016921F4904101612068416921F00E
:102550002A0141612068C16841F40051C1602564CD
:10256000202084F83D0084F83E00002070BD00006B
:1025700010B586B0044614216846FDF77DFE144967
:102580002068884221D113480021026842F01002DD
:102590000260006800F0100005900E4814380268D0
:1025A00042F001020260006800F0010005904FF463
:1025B000C06000900220CDE90101032003900720B4
:1025C000049069460448FFF725FB06B010BD0000E3
:1025D000001001404438024000000240FEE70000C5
:1025E000034900200978012900D10120704700002B
:1025F00046000020034A0146002052788A4300D159
:102600000120704746000020034A014600209278CE
:102610008A4300D10120704746000020034A01464A
:10262000002012788A4300D1012070474600002024
:102630001CB500200090019001A96846FEF70EFE2F
:10264000074A009BD2F8CC10994207D3D2F8D02089
:102650001144019A914201D2012800D000201CBDF2
:102660001402002010B50024FDF79FFE0021CA8946
:10267000824203D108785A2800D10124204610BD97
:10268000034900208988002900D1012070470000FB
:10269000460000200E4810B50C4901600821416039
:1026A00000214FF480328160C0E90312416101765C
:1026B00041768176C17601774177FFF7A6F9002848
:1026C00003D0BDE81040FEF79DBD10BD0064004082
:1026D0005800002030B587B014216846FDF7CCFDC6
:1026E00011480024016841F002010160016801F015
:1026F00002010591016841F00101016000680B4D84
:1027000000F001000590224603212846FFF7A2FBB6
:10271000032000900120CDE9010469462846039476
:10272000FFF778FA07B030BD3038024000040240AD
:102730000C4810B50A4901604FF4E13141600021B5
:1027400081600C22C160C0E904128161C161FFF7A0
:10275000DDFE002803D0BDE81040FEF753BD10BDDC
:102760000010014080000020FEE7FEE7704700787F
:10277000403008720120C872022008730320487399
:10278000042088730720486070472DE9FC47002724
:102790000A9E984691460C4682463D460097ADF803
:1027A0000470002E22D0B9F1000F1DD0B8F1000F37
:1027B0001AD0CCB1324601A95046FEF74DFE307812
:1027C000002813D1324669465046FEF74DFD307859
:1027D00000280BD1BDF80400A04200D80446ADF893
:1027E0000440A8F8004015E004203070BDE8FC87E4
:1027F0000098C1688088095C09F8051000988188F4
:10280000491C89B281804288914201D3891A818012
:102810006D1CADB2BDF804008542E9D372B60098D4
:10282000C1888288914201D1077201E001210172C1
:1028300062B63770DAE700002DE9F0410C46074632
:10284000496800200126214D0B2906D20026387840
:102850002246132100F03BF917E000222A602318DA
:102860002968DB7A401C43EA0121C0B229600428B0
:10287000F5D300206A6022186968D27B401C42EAC6
:102880000121C0B269600428F5D34FF00108AEB150
:102890000120FEF7D1FDD5E90001FEF7A9FD38784A
:1028A0000A4940302072102060728220A0720320FA
:1028B0000C39606081F80080BDE8F081FEF704FD0E
:1028C000BDE8F0410020FEF7B7BD00005000002039
:1028D00070B50C460546FEF7F1FC022808D02878B2
:1028E0002246242100F0F3F8BDE87040FEF7ECBC6E
:1028F0000320FEF7A1FD287840302072012060609F
:1029000070BD000070B50C460546FEF7C5FC00F032
:10291000D5F80548C4F8A00028782246BDE87040E4
:10292000782100F0D4B80000E1110008024941F21A
:1029300088308880704700004600002010B5AAB09B
:1029400048216846FDF798FC12AB23AA00211748DE
:10295000FEF7D3FE2398019027980090002813D00B
:102960000020134B134A01990BE000BF03EB001446
:1029700064688C4203D10020694612AA0BE0401C17
:10298000C0B21478A042F1D32AB010BD135C0C1869
:10299000401C2372C0B2009B8342F7D8194602AA9A
:1029A000019800F042F90128EED0FEE7580000201F
:1029B000C0330008E03300087047000070B50546DA
:1029C00000F037F9064CA84201D1012006E000F0E2
:1029D0002EF9A84201D1022000E00020607070BDF5
:1029E000460000202DE9FF410646487A0C4601F1D9
:1029F0000A05012819D0022827D1284600251D4F95
:102A000010210095019502956A46039500F0A6FAFB
:102A100068467A5D415D914219D0307804B0224613
:102A2000BDE8F041352100F052B83078114940300E
:102A30002072102000F09FFA0128EED10D491022DB
:102A4000284600F00FFC12206060BDE8FF816D1C7D
:102A5000EDB2102DDDD330780121403020720220FC
:102A600060601022034800F05BFC0349032088707B
:102A7000EBE70000B00600204600002010B586B04D
:102A80000024019404AB01AA02A90820049400F0D8
:102A9000BFF8012807D104980094C1B2034B02AAE1
:102AA000019800F0C1F906B010BD00000D2C00081F
:102AB00001490870704700004600002010B500244E
:102AC000A5202070FDF771FCE08110BD70477F23C9
:102AD00013725072917203205060704701498870E0
:102AE000704700004600002010B5FFF7BFF9BDE8B1
:102AF000104000F055B8000030B593B03021684662
:102B0000FDF7BAFB14210CA8FDF7B6FB1E48002503
:102B1000016841F080510160006800F08050119020
:102B20001A48016821F4404141F480410160006885
:102B3000022400F4404011900120039010200490E2
:102B4000009406940820CDE907504020CDE90904FF
:102B500004200B906846FFF70FFB08B172B6FEE742
:102B60000CA90F2081E831004FF4A0500F904FF4D2
:102B70008050109002210CA8FFF712FA002801D013
:102B800072B6FEE713B030BD40380240007000401E
:102B90000248016841F470010160704788ED00E06F
:102BA00006480188491C0A04120C00D001804188A3
:102BB000491C0A04120C00D0418070471C00002000
:102BC00070470000044A00205188642902D3012084
:102BD00064395180704700001C000020044A002026
:102BE0001188002902D00120491E11807047000081
:102BF0001C00002010B5044C2168002902D0884731
:102C00000020206010BD000040000020FEF70EB83C
:102C10003EB515461C466A46FEF72CF8012803D13E
:102C200000992960019921603EBDFEF767B8FEF763
:102C300097B8FEF798B8FEF799B8FEF79AB8FEF77E
:102C4000CDB8F0B587B00646002017460D46ADF862
:102C5000040005AA01A95220FEF7FEFB9DF814000E
:102C600010BBBDF804000C281ED305AC01AB02AAB2
:102C70000C2152200094FFF788FD9DF8140098B9AC
:102C8000BDF804000C280FD10398009481B201AB69
:102C90003A465220FFF779FD9DF8140020B9BDF89F
:102CA00004100398884202D0002007B0F0BD0298BB
:102CB0003060039828600120F7E7FEF7EBB80000CA
:102CC000014908607047000040000020FEF746B947
:102CD000F0B587B006460020ADF800000296CDE9B9
:102CE00003211F4695B202F10C04FFF7A4FFB04286
:102CF0001ED1EDB105AA69465420FEF7D4FB9DF81C
:102D00001400A8B9BDF80000A04211D305AB0C22F5
:102D100002A9542000F03AFA9DF8140040B905AB1E
:102D20002A463946542000F031FA9DF8140010B1BB
:102D3000002007B0F0BD0120FBE70000044802219D
:102D400001700121817041F288318180704700005B
:102D5000460000204A7A32B1802A0AD00A4600781A
:102D60001221FFF7B4BE0078403008724A72022088
:102D700000E00020486070472DE9F0410D4607460D
:102D80000124FEF79BFA012805D0002438782A4652
:102D90002421FFF79CFE234E687A3178884206D0C2
:102DA0002CB1002438782A462421FFF790FE317890
:102DB000B046491C31701B4E6A680C3605F10A0199
:102DC000921E3068FEF7D6FA012808D03CB10024E4
:102DD00038782A462221FFF77AFE706808E03168C9
:102DE00068680144891E31607168081A801C70602F
:102DF000002638B16CB13878403028720420686001
:102E0000BDE8F0812CB188F800600220FEF714FBC9
:102E1000F1E7FEF759FA0020FEF70EFB88F8006094
:102E2000EEE700004400002010B586B01C460023E9
:102E3000CDE903310090114602936846FEF714F97C
:102E40000248846006B0002010BD00001000002081
:102E500070B5044600680169E26821F440511143ED
:102E600001612169A068E26908436169114308436F
:102E70002168CA6849F20C639A430243CA60206819
:102E80004169A26921F440711143416131492068CF
:102E9000884202D03049884202D1FFF72BF901E085
:102EA000FFF718F9E2690023192164253226B2F5EB
:102EB000004F626828D0A0FB0101930F9200FDF73C
:102EC00091F90146B0FBF5F06FF01802504301EBA9
:102ED000800006EB0010B0FBF5F000F0F002B1FB53
:102EE000F5F002EB0012B1FBF5F06FF01803584358
:102EF00001EB800006EB0010B0FBF5F000F00F00D6
:102F000021681044886070BDA0FB010192185B41EC
:102F1000FDF768F90146B0FBF5F00201B1FBF5F0F1
:102F20006FF01803584301EB800006EBC000B0FBC4
:102F3000F5F000F0F80002EB4002B1FBF5F0584369
:102F400001EB800006EBC000B0FBF5F000F00700DD
:102F5000D6E70000001001400014014000230429BE
:102F600007D1C178117081785170417891700078E3
:102F7000D0701846704702004FF0010001D00029C0
:102F800000D1002070477047FFF7FDBF10B5044621
:102F9000FDF724FA012801D1FDF73CFAFDF72CFAE0
:102FA000FFF74BFEFFF70CFEFFF7EEFFFDF707FA0A
:102FB0002046FFF782FEBDE81040FEF725B900006D
:102FC00010B5FFF70BFE01280ED1FFF77FFE00F0D2
:102FD00083F80B480188491C89B20180FA2903D182
:102FE00000210180FEF7BEF8FFF7ECFD012801D1BA
:102FF00000F09DF8FFF723FEBDE8104000F002B896
:103000002000002070B5AAB00024A4216846FDF776
:1030100033F900258DF8A450FFF732FB012806D1C3
:10302000FFF746FD0120FFF759FDFEF74DF902AA13
:103030001646684601A9FFF704FE012849D1FFF7AB
:1030400045FDFFF7CDFA012801D0FFF76FFC00988E
:10305000FFF7B4FC29A8FEF74DFA9DF8083022E0EE
:1030600010F834209A421CD100EBC404A078FFF77A
:10307000C1FA012810D16078FFF7D0FA01280BD1EE
:10308000E078FFF7C1FA012806D1289562681AB1E5
:1030900020466946904711E09DF808006A461121D4
:1030A0000AE0641CE4B29DF8A4108C4201D200280E
:1030B000D6D16A4611211846FFF709FD019800286C
:1030C00007D0FFF7B8FD00903346019A2899FFF723
:1030D000FFFD2AB070BD00000549888808B1401E78
:1030E0008880C888002801D0401EC8807047000032
:1030F0004600002000B5A9B0A4216846FDF7BCF841
:10310000FFF799FD0222CDE9000250208DF808005A
:103110000548289001468DF8092002AB0098FFF77A
:10312000D7FD29B000BD00003D2D0008FEE7704727
:103130002DE9F0410C460546496800200322032989
:103140001AD3114B2618367A1F5CBE4214D1401C8C
:10315000C0B29042F6D3C91EC9B204F10B00FEF70B
:103160004FF9287840302072F12060725A20A07206
:1031700003206060BDE8F08128782246BDE8F04178
:103180001221FFF7A4BC0000783600082DE9FC47A7
:103190004FF0000816460F4681461C004546CDF804
:1031A0000080ADF804800ED07FB11A4601A94846D0
:1031B000FEF779F92078002805D1BDF80400864291
:1031C00006D903202070BDE8FC8704201870FAE7B8
:1031D000224669464846FEF747F820780028F2D193
:1031E00010E00098795DC268C08811540098C188C9
:1031F000491C89B2C1804288914201D3891AC18099
:103200006D1CADB2B542ECD372B60098C18882880D
:10321000914201D1022100E00121017262B684F8DD
:103220000080D0E70907090E002804DB00F1E02048
:1032300080F80014704700F00F0000F1E02080F8E3
:10324000141D704702E008C8121F08C1002AFAD1F5
:1032500070477047002001E001C1121F002AFBD116
:103260007047000070B5092A4FF0000303D305E052
:10327000CD5CC5545B1C9342FAD370BD441AE4B2D2
:10328000A50705D0E40723D047E0CD5CC5545B1CFF
:10329000C418A407F9D1C418CD18D21A9308002174
:1032A00005E000BF55F8216044F82160491C9942AF
:1032B000F8D304EB810305EB8104494202EB810260
:1032C000002102E0655C5D54491C9142FAD370BD57
:1032D000C40702D00C7804700123C418CD18D21A88
:1032E0005308002105E000BF35F8116024F8116093
:1032F000491C9942F8D304EB410305EB41044942D0
:1033000002EB4102002102E0655C5D54491C9142E0
:10331000FAD370BDCD5CC5545B1C9A42FAD170BD26
:1033200070B5072A4FF0000302D306E0C1545B1CBE
:103330009342FBD370BDC1545B1CC418A407FAD1DF
:10334000C418D31A01EB01429D0802EB02260022A9
:1033500003E000BF44F82260521CAA42FAD304EBF7
:103360008204524203EB8203002201E0A154521C6A
:103370009A42FBD370BD0000FEF780FDFFF7BCFB57
:10338000FFF7A8F9FFF786F9FFF7D2F9FDF748FE36
:103390000448FFF7FBFD00BFFFF712FEFFF76EFBCF
:1033A000FAE70000A9030008000000000000000088
:1033B00001020304060708090000000001020304DB
:1033C00001000000DF070000FFFFFFFF000000001A
:1033D000020000004C070000FFFFFFFF000000009C
:1033E000020000005E36BC6CE25A78D926EFC4B504
:1033F0009A8389FFD7C935936BA5F126AF104D4A43
:10340000137C6BB23584D7DE89E8136B4D5DAF0753
:10341000F131E24DBC7B5E2100179A94C4A226F8DC
:1034200078CEAF29F11F13454D73D7F089C66B9C39
:1034300035AA26D678E09ABAC48C5E0F0039E263CA
:10344000BC55C49B9AAD78F726C1BC42E274002EED
:103450005E184D641352F108AF3E35BD6B8B89D1B8
:10346000D7E75E530065E23FBC09268A78BC9AE63E
:10347000C4D0D7AC899A6BC035F6AF75F143131938
:103480004D2F35E16BD7898DD7BB4D38130EF154D5
:10349000AF62BC1EE22800725E44C4C79AF178ABEA
:1034A000269DF17AAF4C4D16132089A3D79535CFC1
:1034B0006BF9788526B3C4E99ADF005C5E6ABC309C
:1034C000E2069AC8C4FE26A47892E211BC275E7D6B
:1034D000004B13374D01AF5BF16D6BEE35D8D782E2
:1034E00089B4BCA6E29000CA5EFCC47F9A497813F6
:1034F000262535596B6F8935D7034D8013B6F1EC0E
:10350000AFDAD71489226B78354EAFCDF1FB13A11A
:103510004D975EEB00DDE287BCB1263278049A5EFF
:10352000C468138F4DB9AFE3F1D56B563560D73A08
:10353000890C9A70C446261C782AE2A9BC9F5EC5F5
:1035400000F3783D260BC4519A6700E45ED2BC8834
:10355000E2BEF1C2AFF44DAE1398891BD72D35777B
:103560006B41E2F5BCC35E9900AF9A2CC41A2640A9
:1035700078766B0A353CD766895013D34DE5AFBFDB
:10358000F1898947D771352B6B1DF19EAFA84DF29C
:1035900013C400B85E8EBCD4E2E278612657C40D35
:1035A0009A3B4DDC13EAF1B0AF8635056B33896980
:1035B000D75FC4239A15784F2679BCFAE2CC0096DF
:1035C0005EA0266E78589A02C4345EB70081E2DBB2
:1035D000BCEDAF91F1A713FD4DCBD748897E6B248D
:1035E0003512000000000000410500080100000045
:1035F000E907000802000000490700080700000072
:10360000A109000804000000BD0500080500000035
:10361000650B000806000000790A0008030000009E
:10362000CD060008080000003D0800080900000061
:10363000450C000801000000000000000000000030
:10364000000000000000000001000000DF07000093
:103650004C0700005C070000000001001900190081
:103660004B0000006400960032000000990F000833
:10367000A10E00083D0400082EF15A0010070301B6
:103680007511000828070301DD1000082207030157
:103690006F270008850703010B11000827070101A8
:1036A000E52900082E02010331310008340201032C
:1036B0003928000836020103792D0008370201037A
:1036C000D128000811030303052900083E0703035E
:1036D000552D0008F43600080000002058000000B6
:1036E000443200084C37000858000020680A0000E7
:1036F000543200080100000010000000000000002B
:103700000024F4005C07000003000000000000003B
:1037100000000000000000000000000000000000A9
:103720000000000000000000000000007003000026
:103730000000000000000000000001000100000087
:0C3740000000000000000000000000007D
:04000005080001AD41
:00000001FF
